{
  "_format": "hh-sol-artifact-1",
  "contractName": "Lock",
  "sourceName": "contracts/Lock.sol",
  "abi": [
    {
      "inputs": [
        {
          "internalType": "uint256",
          "name": "_unlockTime",
          "type": "uint256"
        }
      ],
      "stateMutability": "payable",
      "type": "constructor"
    },
    {
      "inputs": [],
      "name": "unlockTime",
      "outputs": [
        {
          "internalType": "uint256",
          "name": "",
          "type": "uint256"
        }
      ],
      "stateMutability": "view",
      "type": "function"
    },
    {
      "inputs": [],
      "name": "withdraw",
      "outputs": [],
      "stateMutability": "nonpayable",
      "type": "function"
    }
  ],
  "bytecode": "0x608060405260405161036c38038061036c833981810160405281019061002591906100af565b804210610067576040517f08c379a000000000000000000000000000000000000000000000000000000000815260040161005e9061015f565b60405180910390fd5b806000819055505061017f565b600080fd5b6000819050919050565b61008c81610079565b811461009757600080fd5b50565b6000815190506100a981610083565b92915050565b6000602082840312156100c5576100c4610074565b5b60006100d38482850161009a565b91505092915050565b600082825260208201905092915050565b7f556e6c6f636b2074696d652073686f756c6420626520696e207468652066757460008201527f7572650000000000000000000000000000000000000000000000000000000000602082015250565b60006101496023836100dc565b9150610154826100ed565b604082019050919050565b600060208201905081810360008301526101788161013c565b9050919050565b6101de8061018e6000396000f3fe608060405234801561001057600080fd5b50600436106100365760003560e01c8063251c1aa31461003b5780633ccfd60b14610059575b600080fd5b610043610063565b6040516100509190610110565b60405180910390f35b610061610069565b005b60005481565b6000544210156100ae576040517f08c379a00000000000000000000000000000000000000000000000000000000081526004016100a590610188565b60405180910390fd5b3373ffffffffffffffffffffffffffffffffffffffff166108fc479081150290604051600060405180830381858888f193505050501580156100f4573d6000803e3d6000fd5b50565b6000819050919050565b61010a816100f7565b82525050565b60006020820190506101256000830184610101565b92915050565b600082825260208201905092915050565b7f596f752063616e27742077697468647261772079657400000000000000000000600082015250565b600061017260168361012b565b915061017d8261013c565b602082019050919050565b600060208201905081810360008301526101a181610165565b905091905056fea26469706673582212205c32fdc388c9cb253b759e5cb0f6fee2d4745b4ef99e2cfe70babf52c460168b64736f6c63430008180033",
  "linkReferences": {},
  "deployedLinkReferences": {}
}